:020000040800F2
:100000000080012089030008D9030008D9030008F3
:10001000D9030008D9030008D90300080000000034
:10002000000000000000000000000000D9030008EC
:10003000D903000800000000D9030008D903000814
:1000400000000000D9030008D9030008D903000804
:10005000D9030008D9030008D9030008D903000810
:10006000D9030008D9030008D903000800000000E4
:100070000000000000000000000000000000000080
:100080000000000000000000D9030008000000008C
:10009000000000000000000000000000D90300087C
:1000A000D9030008D9030008D9030008D9030008C0
:1000B000D9030008D9030008D9030008D9030008B0
:1000C000D9030008D9030008D9030008D9030008A0
:1000D000D9030008D9030008D90300080000000074
:1000E000D9030008D9030008D90300080000000064
:1000F0000000000000000000000000000000000000
:1001000000000000D9030008D9030008D903000843
:1001100000000000000000000000000000000000DF
:1001200000000000000000000000000000000000CF
:1001300000000000000000000000000000000000BF
:10014000000000000000000000000000D9030008CB
:10015000000000000000000000000000D9030008BB
:10016000D9030008D90300080000000000000000C7
:10017000000000000000000000000000000000007F
:1001800000000000D903000800000000000000008B
:04019000D903000887
:1001940010B5054C237833B9044B13B10448AFF3BD
:1001A40000800123237010BD000000200000000027
:1001B4002404000808B5034B1BB103490348AFF3FB
:1001C400008008BD00000000040000202404000892
:1001D40080B500AF00F004F800F070F8FEE700000E
:1001E40080B400AF334B1B6B324A43F001031363FB
:1001F400314B1B68304A43F4006313602E4B1B6879
:100204002D4A23F4806313602B4B1B6A2A4A43F460
:1002140080131362284B1B6A274A23F400131362CA
:10022400254B1B6A244A23F480031362224B1B6A66
:10023400214A23F4000313621E4B1B6C1D4A43F036
:10024400010313644FF080431B684FF0804223F096
:10025400010313604FF0804340F23F129A624FF063
:10026400804342F20F72DA624FF0804300225A62F6
:100274004FF0804340F2E7325A634FF080439B696A
:100284004FF0804243F0600393614FF080431B6A58
:100294004FF0804243F0010313624FF080431B6828
:1002A4004FF0804243F00103136000BFBD465DF888
:1002B400047B7047003802400000024080B400AF65
:1002C4002D4B1B6B2C4A43F0010313632B4B1B6810
:1002D4002A4A43F002031360284B1B68274A23F081
:1002E40001031360254B1B6A244A23F001031362A4
:1002F400224B1B6A214A43F0020313621F4B1B6A01
:100304001E4A23F0040313621C4B1B6A1B4A23F08E
:1003140008031362184B1B6C174A43F00803136459
:10032400174B1B68164A23F001031360144B40F269
:100334003F129A62124B42F20F72DA62104B0022A1
:100344005A620F4B40F6B7325A630D4B9B690C4A05
:1003540043F0700393610A4B1B6A094A43F001039B
:100364001362074B1B68064A43F00103136000BF86
:10037400BD465DF8047B704700380240000002402F
:10038400000C00400D488546AFF300800C480D4931
:100394000D4A002302E0D458C4500433C4188C42DC
:1003A400F9D30A4A0A4C002301E013600432A24242
:1003B400FBD300F011F8FFF70BFFFEE700800120EC
:1003C4000000002000000020440400080000002079
:1003D4001C000020FEE7000070B50D4D0D4C641BA1
:1003E400A4100026A64209D10B4D0C4C00F018F8BD
:1003F400641BA4100026A64205D170BD55F8043B29
:1004040098470136EEE755F8043B98470136F2E782
:100414003C0400083C0400083C04000840040008B4
:10042400F8B500BFF8BC08BC9E467047F8B500BFDD
:08043400F8BC08BC9E467047AD
:04043C00B9010008FA
:04044000950100081A
:040000050800038963
:00000001FF
