:020000040800F2
:1000000000800120BD0200080D0300080D03000858
:100010000D0300080D0300080D0300080000000098
:100020000000000000000000000000000D030008B8
:100030000D030008000000000D0300080D03000878
:10004000000000000D0300080D0300080D03000868
:100050000D0300080D0300080D0300080D03000840
:100060000D0300080D0300080D0300080000000048
:100070000000000000000000000000000000000080
:1000800000000000000000000D0300080000000058
:100090000000000000000000000000000D03000848
:1000A0000D0300080D0300080D0300080D030008F0
:1000B0000D0300080D0300080D0300080D030008E0
:1000C0000D0300080D0300080D0300080D030008D0
:1000D0000D0300080D0300080D03000800000000D8
:1000E0000D0300080D0300080D03000800000000C8
:1000F0000000000000000000000000000000000000
:10010000000000000D0300080D0300080D030008A7
:1001100000000000000000000000000000000000DF
:1001200000000000000000000000000000000000CF
:1001300000000000000000000000000000000000BF
:100140000000000000000000000000000D03000897
:100150000000000000000000000000000D03000887
:100160000D0300080D03000800000000000000005F
:10017000000000000000000000000000000000007F
:10018000000000000D030008000000000000000057
:040190000D03000853
:1001940010B5054C237833B9044B13B10448AFF3BD
:1001A40000800123237010BD000000200000000027
:1001B4005803000808B5034B1BB103490348AFF3C8
:1001C400008008BD0000000004000020580300085F
:1001D40080B400AF354B1B6B344A43F00103136307
:1001E400324B1B6C314A43F400331364304B1B68AD
:1001F4002F4A43F0200313602D4B1B682C4A23F035
:10020400100313602A4B1B6A294A43F4E063136208
:10021400274B1B6A264A23F400631362254B40F2E2
:1002240083629A60234BDB68224A43F00803D3605D
:10023400204BDB681F4A43F40053D3601D4B6122FB
:100244005A6000BF1B4B1B6803F08003002BF9D0DE
:10025400184B70225A6000BF164B1B6803F08003D2
:10026400002BF9D0134B70225A6000BF114B1B684E
:1002740003F08003002BF9D00E4B6C225A6000BFB0
:100284000C4B1B6803F08003002BF9D0094B65224B
:100294005A6000BF074B1B6803F08003002BF9D0A2
:1002A40000231846BD465DF8047B704700380240C1
:1002B40000000240004400400D488546AFF3008032
:1002C4000C480D490D4A002302E0D458C4500433AD
:1002D400C4188C42F9D30A4A0A4C002301E0136083
:1002E4000432A242FBD300F011F8FFF771FFFEE7DE
:1002F4000080012000000020000000207803000896
:10030400000000201C000020FEE7000070B50D4D29
:100314000D4C641BA4100026A64209D10B4D0C4CB5
:1003240000F018F8641BA4100026A64205D170BD85
:1003340055F8043B98470136EEE755F8043B9847D7
:100344000136F2E770030008700300087003000828
:1003540074030008F8B500BFF8BC08BC9E4670479B
:0C036400F8B500BFF8BC08BC9E4670470E
:04037000B9010008C7
:0403740095010008E7
:04000005080002BD30
:00000001FF
