:020000040800F2
:100000000080012065020008B5020008B502000862
:10001000B5020008B5020008B502000800000000A3
:10002000000000000000000000000000B502000811
:10003000B502000800000000B5020008B502000883
:1000400000000000B5020008B5020008B502000873
:10005000B5020008B5020008B5020008B5020008A4
:10006000B5020008B5020008B50200080000000053
:100070000000000000000000000000000000000080
:100080000000000000000000B502000800000000B1
:10009000000000000000000000000000B5020008A1
:1000A000B5020008B5020008B5020008B502000854
:1000B000B5020008B5020008B5020008B502000844
:1000C000B5020008B5020008B5020008B502000834
:1000D000B5020008B5020008B502000800000000E3
:1000E000B5020008B5020008B502000800000000D3
:1000F0000000000000000000000000000000000000
:1001000000000000B5020008B5020008B5020008B2
:1001100000000000000000000000000000000000DF
:1001200000000000000000000000000000000000CF
:1001300000000000000000000000000000000000BF
:10014000000000000000000000000000B5020008F0
:10015000000000000000000000000000B5020008E0
:10016000B5020008B5020008000000000000000011
:10017000000000000000000000000000000000007F
:1001800000000000B50200080000000000000000B0
:04019000B5020008AC
:1001940010B5054C237833B9044B13B10448AFF3BD
:1001A40000800123237010BD000000200000000027
:1001B4000003000808B5034B1BB103490348AFF320
:1001C400008008BD000000000400002000030008B7
:1001D400B0B48DB000AF1E4B1B6B1D4A43F002033D
:1001E40013631C4B3C461D460FCD0FC40FCD0FC4EB
:1001F40095E8030084E80300174B1B68164A43F490
:10020400AA5343F015031360134B1B68124A23F4DB
:100214002A5323F02A0313600023FB6214E00E4ADE
:10022400FB6A9B0030333B4453F8303C536100235A
:10023400BB6202E0BB6A0133BB62BB6A074A9342FA
:10024400F8DDFB6A0133FB62FB6A092BE7DDE3E7B8
:10025400003802401803000800040240801A060017
:100264000D488546AFF300800C480D490D4A002324
:1002740002E0D458C4500433C4188C42F9D30A4A57
:100284000A4C002301E013600432A242FBD300F0C5
:1002940011F8FFF79DFFFEE7008001200000002019
:1002A4000000002048030008000000201C0000207B
:1002B400FEE7000070B50D4D0D4C641BA410002624
:1002C400A64209D10B4D0C4C00F018F8641BA41085
:1002D4000026A64205D170BD55F8043B9847013667
:1002E400EEE755F8043B98470136F2E7400300086F
:1002F400400300084003000844030008F8B500BFA9
:10030400F8BC08BC9E467047F8B500BFF8BC08BCF2
:040314009E4670474A
:100318003F000000060000005B0000004F000000E6
:10032800660000006D0000007D000000070000006E
:080338007F0000006F000000CF
:04034000B9010008F7
:040344009501000817
:040000050800026588
:00000001FF
