:020000040800F2
:10000000008001209D020008ED020008ED020008BA
:10001000ED020008ED020008ED02000800000000FB
:10002000000000000000000000000000ED020008D9
:10003000ED02000800000000ED020008ED020008DB
:1000400000000000ED020008ED020008ED020008CB
:10005000ED020008ED020008ED020008ED020008C4
:10006000ED020008ED020008ED02000800000000AB
:100070000000000000000000000000000000000080
:100080000000000000000000ED0200080000000079
:10009000000000000000000000000000ED02000869
:1000A000ED020008ED020008ED020008ED02000874
:1000B000ED020008ED020008ED020008ED02000864
:1000C000ED020008ED020008ED020008ED02000854
:1000D000ED020008ED020008ED020008000000003B
:1000E000ED020008ED020008ED020008000000002B
:1000F0000000000000000000000000000000000000
:1001000000000000ED020008ED020008ED0200080A
:1001100000000000000000000000000000000000DF
:1001200000000000000000000000000000000000CF
:1001300000000000000000000000000000000000BF
:10014000000000000000000000000000ED020008B8
:10015000000000000000000000000000ED020008A8
:10016000ED020008ED0200080000000000000000A1
:10017000000000000000000000000000000000007F
:1001800000000000ED020008000000000000000078
:04019000ED02000874
:1001940010B5054C237833B9044B13B10448AFF3BD
:1001A40000800123237010BD000000200000000027
:1001B4003803000808B5034B1BB103490348AFF3E8
:1001C400008008BD0000000004000020380300087F
:1001D40080B485B000AF7860174B43F67F625A60F5
:1001E400154B00229A60144B1B68134A43F0040316
:1001F4001360114B1B68104A43F001031360002382
:10020400FB6009E000BF0C4B1B6803F48033002B38
:10021400F9D0FB680133FB60FA687B689A42F1DB32
:10022400054B1B68044A23F00103136000BF143715
:10023400BD465DF8047B704710E000E080B500AF78
:10024400134B1B6B124A43F001031363114B1B68DE
:10025400104A43F4806313600E4B1B680D4A23F469
:10026400006313600B4B5B690A4A43F0200353613C
:100274004FF4FA70FFF7ACFF064B5B69054A23F0B5
:10028400200353614FF4FA70FFF7A2FFEAE700BFBF
:1002940000380240000002400D488546AFF300805C
:1002A4000C480D490D4A002302E0D458C4500433CD
:1002B400C4188C42F9D30A4A0A4C002301E01360A3
:1002C4000432A242FBD300F011F8FFF7B7FFFEE7B8
:1002D40000800120000000200000002058030008D6
:1002E400000000201C000020FEE7000070B50D4D4A
:1002F4000D4C641BA4100026A64209D10B4D0C4CD6
:1003040000F018F8641BA4100026A64205D170BDA5
:1003140055F8043B98470136EEE755F8043B9847F7
:100324000136F2E7500300085003000850030008A8
:1003340054030008F8B500BFF8BC08BC9E467047DB
:0C034400F8B500BFF8BC08BC9E4670472E
:04035000B9010008E7
:040354009501000807
:040000050800029D50
:00000001FF
