:020000040800F2
:100000000080012059020008A9020008A902000886
:10001000A9020008A9020008A902000800000000C7
:10002000000000000000000000000000A90200081D
:10003000A902000800000000A9020008A9020008A7
:1000400000000000A9020008A9020008A902000897
:10005000A9020008A9020008A9020008A9020008D4
:10006000A9020008A9020008A90200080000000077
:100070000000000000000000000000000000000080
:100080000000000000000000A902000800000000BD
:10009000000000000000000000000000A9020008AD
:1000A000A9020008A9020008A9020008A902000884
:1000B000A9020008A9020008A9020008A902000874
:1000C000A9020008A9020008A9020008A902000864
:1000D000A9020008A9020008A90200080000000007
:1000E000A9020008A9020008A902000800000000F7
:1000F0000000000000000000000000000000000000
:1001000000000000A9020008A9020008A9020008D6
:1001100000000000000000000000000000000000DF
:1001200000000000000000000000000000000000CF
:1001300000000000000000000000000000000000BF
:10014000000000000000000000000000A9020008FC
:10015000000000000000000000000000A9020008EC
:10016000A9020008A9020008000000000000000029
:10017000000000000000000000000000000000007F
:1001800000000000A90200080000000000000000BC
:04019000A9020008B8
:1001940010B5054C237833B9044B13B10448AFF3BD
:1001A40000800123237010BD000000200000000027
:1001B400F402000808B5034B1BB103490348AFF32D
:1001C400008008BD0000000004000020F4020008C4
:1001D40080B400AF1D4B1B6B1C4A43F00103136337
:1001E4001A4B1B6C194A43F001031364184B1B6828
:1001F400174A43F0010313604FF0804300221A6052
:100204004FF0804300225A624FF0804340F23F6235
:100214009A624FF080434FF4FA72DA624FF08043EF
:100224001B684FF0804243F00103136000BF4FF09E
:1002340080431B6903F00103002BF8D0044B5B6976
:10024400034A83F001035361F0E700BF0038024022
:10025400000002400D488546AFF300800C480D496C
:100264000D4A002302E0D458C4500433C4188C420D
:10027400F9D30A4A0A4C002301E013600432A24273
:10028400FBD300F011F8FFF7A3FFFEE70080012085
:1002940000000020000000201403000800000020DB
:1002A4001C000020FEE7000070B50D4D0D4C641BD2
:1002B400A4100026A64209D10B4D0C4C00F018F8EE
:1002C400641BA4100026A64205D170BD55F8043B5A
:1002D40098470136EEE755F8043B98470136F2E7B4
:1002E4000C0300080C0300080C03000810030008AA
:1002F400F8B500BFF8BC08BC9E467047F8B500BF0F
:08030400F8BC08BC9E467047DE
:04030C00B90100082B
:04031000950100084B
:040000050800025994
:00000001FF
