:020000040800F2
:1000000000800120DD0400082D0500082D050008F2
:100010002D0500082D0500082D0500080000000032
:100020000000000000000000000000002D05000896
:100030002D050008000000002D0500082D05000812
:10004000000000002D0500082D0500082D05000802
:100050002D0500082D0500082D0500082D050008B8
:100060002D0500082D0500082D05000800000000E2
:100070000000000000000000000000000000000080
:1000800000000000000000002D0500080000000036
:100090000000000000000000000000002D05000826
:1000A0002D0500082D0500082D0500082D05000868
:1000B0002D0500082D0500082D0500082D05000858
:1000C0002D0500082D0500082D0500082D05000848
:1000D0002D0500082D0500082D0500080000000072
:1000E0002D0500082D0500082D0500080000000062
:1000F0000000000000000000000000000000000000
:10010000000000002D0500082D0500082D05000841
:1001100000000000000000000000000000000000DF
:1001200000000000000000000000000000000000CF
:1001300000000000000000000000000000000000BF
:100140000000000000000000000000002D05000875
:100150000000000000000000000000002D05000865
:100160002D0500082D05000800000000000000001B
:10017000000000000000000000000000000000007F
:10018000000000002D050008000000000000000035
:040190002D05000831
:1001940010B5054C237833B9044B13B10448AFF3BD
:1001A40000800123237010BD6400002000000000C3
:1001B400900F000808B5034B1BB103490348AFF384
:1001C400008008BD0000000068000020900F0008B7
:1001D40080B500AF00F0BCF800F016F900BF084B82
:1001E4001B6903F00103002BF9D0054B1B69044A7A
:1001F40043F001031361034800F038FAEEE700BF4F
:10020400000C0040A80F000880B586B000AFF8606D
:10021400B9607A6000237B610AE0AFF30080014695
:10022400BB685A1CBA60CAB21A707B6901337B611D
:100234007A697B689A42F0DB7B6818461837BD46BA
:1002440080BD80B586B000AFF860B9607A600023E5
:100254007B6109E0BB685A1CBA601B78184600F041
:100264002DF97B6901337B617A697B689A42F1DB02
:100274007B6818461837BD4680BD80B483B000AF94
:1002840078604FF0FF3318460C37BD465DF8047BA9
:10029400704780B483B000AF786039603B684FF436
:1002A40000525A60002318460C37BD465DF8047BA3
:1002B400704780B483B000AF7860012318460C37D0
:1002C400BD465DF8047B704780B485B000AFF8602C
:1002D400B9607A60002318461437BD465DF8047B84
:1002E4007047000080B586B000AF7860144A154BA3
:1002F400D31A7B617B693B61134B1B68002B02D1D2
:10030400114B124A1A60104B1A687B6813443A69FD
:100314009A4207D200F00AF903460C221A604FF001
:10032400FF3309E0084B1B68FB60074B1A687B68C6
:100334001344054A1360FB6818461837BD4680BD50
:1003440000800120000400008000002098000020AC
:1003540080B400AF294B1B6B284A43F0010313639D
:10036400264B1B6C254A43F008031364244B1B687B
:10037400234A43F002031360214B1B68204A23F0F5
:10038400010313601E4B1B6A1D4A43F002031362F0
:100394001B4B1B6A1A4A23F001031362184B1B6A96
:1003A400174A23F001031362154B1B6A144A23F006
:1003B40001031362134B1B68124A23F001031360F9
:1003C400104B41F63F72DA620E4B09229A620D4BD2
:1003D4009B690C4A43F0300393610A4B1B6A094A38
:1003E40043F001031362074B1B68064A43F0010301
:1003F400136000BFBD465DF8047B704700380240BF
:1004040000000240000C004080B400AF1C4B1B6B8A
:100414001B4A43F001031363194B1B6C184A43F442
:1004240000331364174B1B68164A43F02003136010
:10043400144B1B68134A23F010031360114B1B6AFF
:10044400104A43F4E06313620E4B1B6A0D4A23F413
:10045400006313620C4B40F283629A600A4BDB68C0
:10046400094A43F00803D360074BDB68064A43F4A8
:100474000053D36000BFBD465DF8047B704700BFE6
:1004840000380240000002400044004080B483B0C1
:1004940000AF0346FB71084AFB79536000BF064B6B
:1004A4001B6803F08003002BF9D000BF00BF0C379A
:1004B400BD465DF8047B70470044004080B582B0BF
:1004C40000AF78607B68DBB21846FFF7DFFF7B681C
:1004D40018460837BD4680BD0D488546AFF30080F9
:1004E4000C480D490D4A002302E0D458C45004338B
:1004F400C4188C42F9D30A4A0A4C002301E0136061
:100504000432A242FBD300F017F8FFF761FEFEE7C6
:100514000080012000000020640000202410000856
:100524006400002094000020FEE70000014B1868DE
:10053400704700BF0000002070B50D4D0D4C641BCA
:10054400A4100026A64209D10B4D0C4C00F01EFD50
:10055400641BA4100026A64205D170BD55F8043BC7
:1005640098470136EEE755F8043B98470136F2E721
:100574001C1000081C1000081C10000820100008A3
:1005840002440346934200D1704703F8011BF9E784
:1005940070B50E46054618B183690BB900F048FAE8
:1005A400AB69AC6813B9284600F042FA2C4B9C4264
:1005B40020D16C68636EDB0705D4A389980502D447
:1005C400A06D00F0D3FAA38919071DD52369DBB107
:1005D400013EA36816F8011F013BA36039BB002B41
:1005E40038DA22460A21284600F048F8013011D0B2
:1005F4000A2511E01B4B9C4201D1AC68DAE71A4B87
:100604009C4208BFEC68D5E72146284600F088F8EC
:100614000028DDD04FF0FF35636EDA0705D4A389D7
:100624009B0502D4A06D00F0A2FA284670BD002BF1
:1006340004DAA2699A4206DC0A2904D023685A1C07
:1006440022601970C5E72246284600F017F80130E9
:10065400BFD1DFE723680A255A1C22601D70DBE73F
:10066400DC0F0008FC0F0008BC0F0008024B014619
:100674001868FFF78DBF00BF00000020F8B50E46D4
:100684001446054618B183690BB900F0D1F9214B22
:100694009C422BD16C68A369A360A3891A072FD548
:1006A40023696BB323692068C01A6369F6B2834275
:1006B400374604DC2146284600F026F930BBA368FF
:1006C400013BA36023685A1C22601E7063690130D9
:1006D400834204D0A389DB0706D50A2E04D1214620
:1006E400284600F011F988B93846F8BD0A4B9C42F7
:1006F40001D1AC68CFE7094B9C4208BFEC68CAE75C
:100704002146284600F00CF80028CBD04FF0FF37E4
:10071400EAE700BFDC0F0008FC0F0008BC0F00086C
:10072400324B70B51D6806460C4625B1AB6913B94A
:10073400284600F07DF92E4B9C420FD16C68A389AA
:10074400B4F90C2019072CD4DD0611D40923336025
:1007540042F04003A3814FF0FF303EE0254B9C4222
:1007640001D1AC68EBE7244B9C4208BFEC68E6E798
:10077400580712D5616B41B104F14403994202D088
:10078400304600F05BFA00236363A38923F024035B
:10079400A3810023636023692360A38943F00803D2
:1007A400A38123694BB9A38903F42073B3F5007FB4
:1007B40003D02146304600F001FAA089B4F90C2098
:1007C40010F001030AD00023A36063695B42A361B4
:1007D400236943B910F08000BAD170BD810758BFB6
:1007E4006369A360F4E70020F7E700BF000000207E
:1007F400DC0F0008FC0F0008BC0F00088A892DE9F3
:10080400F041054610070C4658D44B68002B05DC14
:100814000B6C002B02DC0020BDE8F081E66A002EA0
:10082400F9D0002312F480522F682B6032D0606D0F
:10083400A3895A0705D56368C01A636B0BB1236C8F
:10084400C01A00230246E66A216A2846B047431CC0
:10085400A38906D129681D292CD82A4ACA40D6075B
:1008640028D500226260D9042269226004D5421C82
:1008740001D12B6803B96065616B2F600029CAD070
:1008840004F14403994202D0284600F0D7F900202D
:100894006063C1E7216A01232846B047411CC7D1E0
:1008A4002B68002BC4D01D2B01D0162B01D12F6037
:1008B400B1E7A38943F04003A381ADE70F69002F9B
:1008C400A9D093070E6808BF4B690F6018BF0023B7
:1008D400A6EB07088B60B8F1000F9CDD216AA66ABD
:1008E40043463A462846B047002806DCA38943F02D
:1008F4004003A3814FF0FF308EE70744A8EB0008C4
:10090400E9E700BF0100402038B50B6905460C46F5
:1009140013B90025284638BD18B183690BB900F016
:1009240087F8144B9C421BD16C68B4F90C30002B33
:10093400EFD0626ED00704D4990502D4A06D00F004
:1009440015F928462146FFF759FF636EDA07054675
:10095400E0D4A3899B05DDD4A06D00F008F9D9E7A4
:10096400054B9C4201D1AC68DFE7044B9C4208BFB5
:10097400EC68DAE7DC0F0008FC0F0008BC0F000885
:10098400002310B50446C0E90033C0E90433836092
:1009940081814366C2818361194608225C30FFF776
:1009A400EFFD054B6362054BA362054BE362054B08
:1009B4002462236310BD00BF210E0008430E00080B
:1009C4007B0E00089F0E0008014900F0AFB800BF7D
:1009D4000D09000870B568224D1E55430E4605F1F9
:1009E400740100F097F9044640B10021C0E90016F3
:1009F4000C30A06005F16802FFF7C2FD204670BD0F
:100A0400014800F0B3B800BF85000020014800F0A1
:100A1400AEB800BF85000020014800F0A7B800BFB1
:100A240086000020014800F0A2B800BF8600002024
:100A340010B50446FFF7F0FFA3691BB1BDE81040F1
:100A4400FFF7F0BFC4E912332365134B134A1B6845
:100A5400A262A34204BF0123A361204600F020F850
:100A64006060204600F01CF8A060204600F018F8F2
:100A74000022E06004216068FFF782FFA068012281
:100A84000921FFF77DFFE06802221221FFF778FFBA
:100A94000123A361D2E700BFB80F0008CD09000805
:100AA400F8B50746FFF7ACFF1E4B1E68B36913B9D0
:100AB4003046FFF7BDFF4836D6E90134013B03D584
:100AC40033680BB33668F7E7B4F90C50D5B9164B55
:100AD400E36004F15800656600F047F8FFF796FFFD
:100AE400C4E90155C4E904552560A56108222946D5
:100AF40004F15C00FFF744FDC4E90D55C4E9125547
:100B04002046F8BD6834D9E704213846FFF762FF70
:100B1400044630600028D5D1FFF778FF0C233B60F2
:100B2400EEE700BFB80F00080100FFFF2DE9F8430E
:100B34000646884600F148040027D4E90195B9F136
:100B4400010905D52468002CF7D13846BDE8F8839F
:100B5400AB89012B07D9B5F90E30013303D02946EF
:100B64003046C04707436835E9E770477047704728
:100B740070B50E46B1F90E10002996B014461D4604
:100B840008DAB6F90C3000222A601A0610D44FF4A1
:100B940080630EE06A4600F0A7F90028F1DB019AB1
:100BA40002F47042A2F500535A425A412A60EEE719
:100BB40040230020236016B070BD00008B8973B5FC
:100BC4009D0706460C4607D504F1470323602361BD
:100BD4000123636102B070BD01AB6A46FFF7C8FF31
:100BE40000990546304600F095F848B9B4F90C3040
:100BF4009A05EFD423F0030343F00203A381E3E750
:100C04000D4BB362A389206043F08003A381009B52
:100C14006361019B20615BB1B4F90E10304600F0B2
:100C240075F928B1A38923F0030343F00103A381D9
:100C3400A0890543A581CDE7CD09000837B5002972
:100C440044D051F8043C0190002BA1F10404B8BF36
:100C5400E41800F07DF91E4A0198136833B9636003
:100C6400146003B0BDE8304000F078B9A34208D95D
:100C7400256861198B4201BF19685B6849192160B5
:100C8400EDE71A465B680BB1A342FAD9116855180F
:100C9400A5420BD1246821445418A3421160E0D129
:100CA4001C685B68536021441160DAE702D90C23A5
:100CB4000360D6E7256861198B4204BF19685B6835
:100CC400636004BF491921605460CAE703B030BDB2
:100CD4008800002070B50E4E0C463168054611B9E7
:100CE40000F08CF830602146284600F087F8431C59
:100CF4000AD0C41C24F00304A04207D0211A2846B9
:100D040000F07CF8013001D14FF0FF34204670BD73
:100D14008C0000202DE9F041CD1C25F00305083599
:100D24000C2D38BF0C25002D074601DBA94205D93F
:100D34000C233B6000263046BDE8F0812E4E00F0C7
:100D440007F933681C4634BB29463846FFF7C2FF0F
:100D5400431C04464DD134682646002E40D12368F6
:100D64003146384604EB030800F048F880453AD190
:100D7400216803356D1A25F0030508350C2D38BF9D
:100D84000C2529463846FFF7A5FF01302BD02368F0
:100D94002B4423600EE02268521B1ED40B2A16D962
:100DA4006119A342256018BF5960636808BF3160A8
:100DB40062514B60384604F10B0600F0CFF826F080
:100DC4000706231DF21AB6D09B1BA350B3E7626833
:100DD400A3420CBF32605A60ECE723466468B2E772
:100DE40034467668B9E70C233B60384600F0B6F821
:100DF400A1E72560DEE700BF8800002038B5064D76
:100E04000023044608462B60FFF76CFA431C02D10A
:100E14002B6803B1236038BD9000002010B50C4648
:100E2400B1F90E1000F0A0F80028ABBF636DA389E0
:100E34001B1823F48053ACBF6365A38110BD2DE957
:100E4400F0411F468B89DB0505460C46164605D541
:100E5400B1F90E100223002200F068F8A389B4F956
:100E64000E1023F48053A38132463B462846BDE846
:100E7400F04100F017B810B50C46B1F90E1000F0AF
:100E840055F8431CA38915BF606523F4805343F4CC
:100E94008053A38118BFA38110BDB1F90E1000F0D7
:100EA40013B8000038B5074D044608461146002221
:100EB4002A601A46FFF7C5F9431C02D12B6803B117
:100EC400236038BD9000002038B5064D0023044649
:100ED40008462B60FFF7D1F9431C02D12B6803B1FC
:100EE400236038BD9000002038B5074D0023044628
:100EF400084611462B60FFF7CCF9431C02D12B683E
:100F040003B1236038BD00BF9000002038B5064D02
:100F14000023044608462B60FFF7CBF9431C02D19B
:100F24002B6803B1236038BD9000002038B5074D0D
:100F340004460846114600222A601A46FFF7C4F9FF
:100F4400431C02D12B6803B1236038BD90000020FC
:100F54000148FFF70BBE00BF840000200148FFF7E3
:100F640006BE00BF8400002038B5074D044608467D
:100F7400114600222A601A46FFF746F9431C02D1A3
:100F84002B6803B1236038BD90000020F8B500BF82
:100F9400F8BC08BC9E467047F8B500BFF8BC08BC56
:040FA4009E467047AE
:100FA8005449434B204F6363757265640D0000001C
:100FB8000400002000000000000000000000000005
:100FC8000000000000000000000000000000000019
:100FD8000000000000000000000000000000000009
:100FE80000000000000000000000000000000000F9
:100FF80000000000000000000000000000000000E9
:1010080000000000000000000000000000000000D8
:0410180000000000D4
:04101C00B90100080E
:04102000950100082E
:101024000400002000000000DC0F0008FC0F000892
:10103400BC0F0008000000000000000000000000D9
:10104400000000000000000000000000000000009C
:10105400000000000000000000000000000000008C
:10106400000000000000000000000000000000007C
:10107400000000000000000000000000000000006C
:041084000000000068
:04000005080004DD0E
:00000001FF
