:020000040800F2
:10000000008001203D0400088D0400088D040008D4
:100010008D0400088D0400088D0400080000000015
:100020000000000000000000000000008D04000837
:100030008D040008000000008D0400088D040008F5
:10004000000000008D0400088D0400088D040008E5
:100050008D0400088D0400088D0400088D0400083C
:100060008D0400088D0400088D04000800000000C5
:100070000000000000000000000000000000000080
:1000800000000000000000008D04000800000000D7
:100090000000000000000000000000008D040008C7
:1000A0008D0400088D0400088D0400088D040008EC
:1000B0008D0400088D0400088D0400088D040008DC
:1000C0008D0400088D0400088D0400088D040008CC
:1000D0008D0400088D0400088D0400080000000055
:1000E0008D0400088D0400088D0400080000000045
:1000F0000000000000000000000000000000000000
:10010000000000008D0400088D0400088D04000824
:1001100000000000000000000000000000000000DF
:1001200000000000000000000000000000000000CF
:1001300000000000000000000000000000000000BF
:100140000000000000000000000000008D04000816
:100150000000000000000000000000008D04000806
:100160008D0400088D04000800000000000000005D
:10017000000000000000000000000000000000007F
:10018000000000008D0400080000000000000000D6
:040190008D040008D2
:1001940010B5054C237833B9044B13B10448AFF3BD
:1001A40000800123237010BD000000200000000027
:1001B400D804000808B5034B1BB103490348AFF347
:1001C400008008BD0000000004000020D8040008DE
:1001D40080B500AF00F0D0F800F004F800F06CF83F
:1001E400FEE7000080B400AF314B1B6B304A43F094
:1001F400010313632E4B1B6C2D4A43F0010313645C
:100204002C4B1B682B4A43F008031360294B1B68D3
:10021400284A23F004031360264B1B6A254A43F043
:1002240010031362234B1B6A224A23F02003136238
:10023400204B1B6A1F4A23F0400313621D4B1B6AA9
:100244001C4A23F0800313624FF080431B684FF075
:10025400804223F0010313604FF0804340F21F32C9
:100264009A624FF0804342F20F72DA624FF0804399
:100274009B694FF0804243F4405393614FF08043B5
:100284001B6A4FF0804243F0100313624FF0804327
:1002940000225A624FF080431B684FF0804243F0C3
:1002A4000103136000BFBD465DF8047B704700BFC7
:1002B400003802400000024080B400AF2B4B1B6B9F
:1002C4002A4A43F001031363284B1B6C274A43F06B
:1002D40002031364264B1B68254A43F4005313603E
:1002E400234B1B68224A23F480531360204B1B6A60
:1002F4001F4A43F0007313621D4B1B6A1C4A23F010
:10030400807313621A4B1B6A194A23F080631362C9
:10031400174B1B6A164A23F000631362154B1B68C4
:10032400144A23F001031360124B40F21F329A6205
:10033400104B42F20F72DA620E4B9B690D4A43F086
:10034400300393610B4B1B6A0A4A43F001031362A7
:10035400084B00225A62074B1B68064A43F001030C
:10036400136000BFBD465DF8047B7047003802404F
:10037400000002400004004080B400AF2B4B1B6B14
:100384002A4A43F001031363284B1B6C274A43F0AA
:1003940008031364264B1B68254A43F002031360C9
:1003A400234B1B68224A23F001031360204B1B6A72
:1003B4001F4A43F0020313621D4B1B6A1C4A23F0BD
:1003C400010313621A4B1B6A194A23F004031362D4
:1003D400174B1B6A164A23F008031362154B1B685C
:1003E400144A23F001031360124B40F21F329A6245
:1003F400104B42F20F72DA620E4B9B690D4A43F0C6
:10040400300393610B4B1B6A0A4A43F001031362E6
:10041400084B00225A62074B1B68064A43F001034B
:10042400136000BFBD465DF8047B7047003802408E
:1004340000000240000C00400D488546AFF30080E8
:100444000C480D490D4A002302E0D458C45004332B
:10045400C4188C42F9D30A4A0A4C002301E0136001
:100464000432A242FBD300F011F8FFF7B1FEFEE71D
:10047400008001200000002000000020F804000893
:10048400000000201C000020FEE7000070B50D4DA8
:100494000D4C641BA4100026A64209D10B4D0C4C34
:1004A40000F018F8641BA4100026A64205D170BD04
:1004B40055F8043B98470136EEE755F8043B984756
:1004C4000136F2E7F0040008F0040008F004000824
:1004D400F4040008F8B500BFF8BC08BC9E46704799
:0C04E400F8B500BFF8BC08BC9E4670478D
:0404F000B901000846
:0404F4009501000866
:040000050800043DAE
:00000001FF
