:020000040800F2
:100000000080012099020008E9020008E9020008C6
:10001000E9020008E9020008E90200080000000007
:10002000000000000000000000000000E9020008DD
:10003000E902000800000000E9020008E9020008E7
:1000400000000000E9020008E9020008E9020008D7
:10005000E9020008E9020008E9020008E9020008D4
:10006000E9020008E9020008E902000800000000B7
:100070000000000000000000000000000000000080
:100080000000000000000000E9020008000000007D
:10009000000000000000000000000000E90200086D
:1000A000E9020008E9020008E9020008E902000884
:1000B000E9020008E9020008E9020008E902000874
:1000C000E9020008E9020008E9020008E902000864
:1000D000E9020008E9020008E90200080000000047
:1000E000E9020008E9020008E90200080000000037
:1000F0000000000000000000000000000000000000
:1001000000000000E9020008E9020008E902000816
:1001100000000000000000000000000000000000DF
:1001200000000000000000000000000000000000CF
:1001300000000000000000000000000000000000BF
:10014000000000000000000000000000E9020008BC
:10015000000000000000000000000000E9020008AC
:10016000E9020008E90200080000000000000000A9
:10017000000000000000000000000000000000007F
:1001800000000000E902000800000000000000007C
:04019000E902000878
:1001940010B5054C237833B9044B13B10448AFF3BD
:1001A40000800123237010BD000000200000000027
:1001B4003403000808B5034B1BB103490348AFF3EC
:1001C400008008BD00000000040000203403000883
:1001D40080B483B000AF2B4B1B6B2A4A43F003035C
:1001E4001363294B1B68284A43F040031360264BD2
:1001F4001B68254A23F080031360244B1B68234AA1
:1002040043F480631360214B1B68204A23F400638A
:1002140013601D4B00229A611C4B00229A611A4BF9
:100224009B69194A43F008039361184B9B69174A69
:1002340043F40013936100237B6002E07B68013385
:100244007B607B68124A9342F8DD0F4B00229A616F
:100254000E4B00229A610C4B9B690B4A43F400231A
:1002640093610A4B9B69094A43F02003936100237D
:100274003B6002E03B6801333B603B68044A9342C5
:10028400F8DDC6E7003802400004024000000240E6
:100294007F1A06000D488546AFF300800C480D49CF
:1002A4000D4A002302E0D458C4500433C4188C42CD
:1002B400F9D30A4A0A4C002301E013600432A24233
:1002C400FBD300F011F8FFF783FFFEE70080012065
:1002D400000000200000002054030008000000205B
:1002E4001C000020FEE7000070B50D4D0D4C641B92
:1002F400A4100026A64209D10B4D0C4C00F018F8AE
:10030400641BA4100026A64205D170BD55F8043B19
:1003140098470136EEE755F8043B98470136F2E773
:100324004C0300084C0300084C0300085003000869
:10033400F8B500BFF8BC08BC9E467047F8B500BFCE
:08034400F8BC08BC9E4670479E
:04034C00B9010008EB
:04035000950100080B
:040000050800029954
:00000001FF
